{
  "_format": "hh-sol-artifact-1",
  "contractName": "Marketplace",
  "sourceName": "contracts/Marketplace.sol",
  "abi": [
    {
      "inputs": [],
      "stateMutability": "nonpayable",
      "type": "constructor"
    },
    {
      "inputs": [],
      "name": "CampaignDiscarded",
      "type": "error"
    },
    {
      "inputs": [
        {
          "internalType": "uint256",
          "name": "required",
          "type": "uint256"
        },
        {
          "internalType": "uint256",
          "name": "available",
          "type": "uint256"
        }
      ],
      "name": "ContractBalanceInsufficient",
      "type": "error"
    },
    {
      "inputs": [
        {
          "internalType": "enum CampaignStatus",
          "name": "expected",
          "type": "uint8"
        },
        {
          "internalType": "enum CampaignStatus",
          "name": "actual",
          "type": "uint8"
        }
      ],
      "name": "InvalidCampaignStatus",
      "type": "error"
    },
    {
      "inputs": [
        {
          "internalType": "address",
          "name": "owner",
          "type": "address"
        }
      ],
      "name": "OwnableInvalidOwner",
      "type": "error"
    },
    {
      "inputs": [
        {
          "internalType": "address",
          "name": "account",
          "type": "address"
        }
      ],
      "name": "OwnableUnauthorizedAccount",
      "type": "error"
    },
    {
      "inputs": [],
      "name": "ReentrancyGuardReentrantCall",
      "type": "error"
    },
    {
      "inputs": [],
      "name": "Unauthorized",
      "type": "error"
    },
    {
      "inputs": [
        {
          "internalType": "address",
          "name": "userAddress",
          "type": "address"
        }
      ],
      "name": "UserAlreadyRegistered",
      "type": "error"
    },
    {
      "inputs": [
        {
          "internalType": "address",
          "name": "userAddress",
          "type": "address"
        }
      ],
      "name": "UserNotRegistered",
      "type": "error"
    },
    {
      "anonymous": false,
      "inputs": [
        {
          "indexed": false,
          "internalType": "bytes4",
          "name": "campaignId",
          "type": "bytes4"
        }
      ],
      "name": "AcceptanceDeadlineReached",
      "type": "event"
    },
    {
      "anonymous": false,
      "inputs": [
        {
          "indexed": true,
          "internalType": "bytes4",
          "name": "campaignId",
          "type": "bytes4"
        },
        {
          "indexed": false,
          "internalType": "address",
          "name": "acceptedBy",
          "type": "address"
        }
      ],
      "name": "CampaignAccepted",
      "type": "event"
    },
    {
      "anonymous": false,
      "inputs": [
        {
          "indexed": true,
          "internalType": "bytes4",
          "name": "campaignId",
          "type": "bytes4"
        },
        {
          "indexed": false,
          "internalType": "address",
          "name": "user",
          "type": "address"
        }
      ],
      "name": "CampaignCreated",
      "type": "event"
    },
    {
      "anonymous": false,
      "inputs": [
        {
          "indexed": false,
          "internalType": "bytes4",
          "name": "campaignId",
          "type": "bytes4"
        }
      ],
      "name": "CampaignFulfilled",
      "type": "event"
    },
    {
      "anonymous": false,
      "inputs": [
        {
          "indexed": true,
          "internalType": "bytes4",
          "name": "campaignId",
          "type": "bytes4"
        },
        {
          "indexed": false,
          "internalType": "address",
          "name": "updatedBy",
          "type": "address"
        }
      ],
      "name": "CampaignUpdated",
      "type": "event"
    },
    {
      "anonymous": false,
      "inputs": [],
      "name": "FundWithdrawalSuccessful",
      "type": "event"
    },
    {
      "anonymous": false,
      "inputs": [
        {
          "indexed": true,
          "internalType": "address",
          "name": "previousOwner",
          "type": "address"
        },
        {
          "indexed": true,
          "internalType": "address",
          "name": "newOwner",
          "type": "address"
        }
      ],
      "name": "OwnershipTransferred",
      "type": "event"
    },
    {
      "anonymous": false,
      "inputs": [
        {
          "indexed": false,
          "internalType": "uint256",
          "name": "previousFees",
          "type": "uint256"
        },
        {
          "indexed": false,
          "internalType": "uint256",
          "name": "updatedFees",
          "type": "uint256"
        }
      ],
      "name": "PlatformFeesUpdated",
      "type": "event"
    },
    {
      "anonymous": false,
      "inputs": [
        {
          "indexed": false,
          "internalType": "bytes4",
          "name": "campaignId",
          "type": "bytes4"
        }
      ],
      "name": "ProjectPaymentReturned",
      "type": "event"
    },
    {
      "anonymous": false,
      "inputs": [
        {
          "indexed": true,
          "internalType": "address",
          "name": "userAddress",
          "type": "address"
        }
      ],
      "name": "UserCreated",
      "type": "event"
    },
    {
      "inputs": [
        {
          "internalType": "bytes4",
          "name": "campaignId",
          "type": "bytes4"
        }
      ],
      "name": "acceptProjectCampaign",
      "outputs": [],
      "stateMutability": "nonpayable",
      "type": "function"
    },
    {
      "inputs": [
        {
          "internalType": "uint256",
          "name": "",
          "type": "uint256"
        }
      ],
      "name": "allUsers",
      "outputs": [
        {
          "internalType": "address",
          "name": "",
          "type": "address"
        }
      ],
      "stateMutability": "view",
      "type": "function"
    },
    {
      "inputs": [],
      "name": "baseUsdcAddress",
      "outputs": [
        {
          "internalType": "address",
          "name": "",
          "type": "address"
        }
      ],
      "stateMutability": "view",
      "type": "function"
    },
    {
      "inputs": [],
      "name": "baseUsdcDecimals",
      "outputs": [
        {
          "internalType": "uint256",
          "name": "",
          "type": "uint256"
        }
      ],
      "stateMutability": "view",
      "type": "function"
    },
    {
      "inputs": [
        {
          "internalType": "address",
          "name": "selectedKol",
          "type": "address"
        },
        {
          "internalType": "uint256",
          "name": "offeringAmount",
          "type": "uint256"
        },
        {
          "internalType": "uint256",
          "name": "promotionEndsIn",
          "type": "uint256"
        },
        {
          "internalType": "uint256",
          "name": "offerEndsIn",
          "type": "uint256"
        }
      ],
      "name": "createNewCampaign",
      "outputs": [],
      "stateMutability": "nonpayable",
      "type": "function"
    },
    {
      "inputs": [
        {
          "internalType": "bytes4",
          "name": "campaignId",
          "type": "bytes4"
        }
      ],
      "name": "discardCampaign",
      "outputs": [],
      "stateMutability": "nonpayable",
      "type": "function"
    },
    {
      "inputs": [],
      "name": "divider",
      "outputs": [
        {
          "internalType": "uint256",
          "name": "",
          "type": "uint256"
        }
      ],
      "stateMutability": "view",
      "type": "function"
    },
    {
      "inputs": [
        {
          "internalType": "bytes4",
          "name": "campaignId",
          "type": "bytes4"
        }
      ],
      "name": "fulfilProjectCampaign",
      "outputs": [],
      "stateMutability": "nonpayable",
      "type": "function"
    },
    {
      "inputs": [],
      "name": "getAllCampaigns",
      "outputs": [
        {
          "internalType": "bytes4[]",
          "name": "",
          "type": "bytes4[]"
        }
      ],
      "stateMutability": "view",
      "type": "function"
    },
    {
      "inputs": [],
      "name": "getAllUsers",
      "outputs": [
        {
          "internalType": "address[]",
          "name": "",
          "type": "address[]"
        }
      ],
      "stateMutability": "view",
      "type": "function"
    },
    {
      "inputs": [
        {
          "internalType": "bytes4",
          "name": "id",
          "type": "bytes4"
        }
      ],
      "name": "getCampaignInfo",
      "outputs": [
        {
          "components": [
            {
              "internalType": "bytes4",
              "name": "id",
              "type": "bytes4"
            },
            {
              "internalType": "uint256",
              "name": "createdAt",
              "type": "uint256"
            },
            {
              "internalType": "address",
              "name": "creatorAddress",
              "type": "address"
            },
            {
              "internalType": "address",
              "name": "selectedKol",
              "type": "address"
            },
            {
              "internalType": "uint256",
              "name": "offerEndsIn",
              "type": "uint256"
            },
            {
              "internalType": "uint256",
              "name": "promotionEndsIn",
              "type": "uint256"
            },
            {
              "internalType": "uint256",
              "name": "amountOffered",
              "type": "uint256"
            },
            {
              "internalType": "enum CampaignStatus",
              "name": "campaignStatus",
              "type": "uint8"
            }
          ],
          "internalType": "struct Campaign",
          "name": "",
          "type": "tuple"
        }
      ],
      "stateMutability": "view",
      "type": "function"
    },
    {
      "inputs": [
        {
          "internalType": "address",
          "name": "userAddress",
          "type": "address"
        }
      ],
      "name": "getUserCampaigns",
      "outputs": [
        {
          "internalType": "bytes4[]",
          "name": "",
          "type": "bytes4[]"
        }
      ],
      "stateMutability": "view",
      "type": "function"
    },
    {
      "inputs": [],
      "name": "owner",
      "outputs": [
        {
          "internalType": "address",
          "name": "",
          "type": "address"
        }
      ],
      "stateMutability": "view",
      "type": "function"
    },
    {
      "inputs": [],
      "name": "platformFeesPercentage",
      "outputs": [
        {
          "internalType": "uint256",
          "name": "",
          "type": "uint256"
        }
      ],
      "stateMutability": "view",
      "type": "function"
    },
    {
      "inputs": [],
      "name": "register",
      "outputs": [],
      "stateMutability": "nonpayable",
      "type": "function"
    },
    {
      "inputs": [],
      "name": "renounceOwnership",
      "outputs": [],
      "stateMutability": "nonpayable",
      "type": "function"
    },
    {
      "inputs": [
        {
          "internalType": "address",
          "name": "newOwner",
          "type": "address"
        }
      ],
      "name": "transferOwnership",
      "outputs": [],
      "stateMutability": "nonpayable",
      "type": "function"
    },
    {
      "inputs": [
        {
          "internalType": "bytes4",
          "name": "campaignId",
          "type": "bytes4"
        },
        {
          "internalType": "address",
          "name": "selectedKol",
          "type": "address"
        },
        {
          "internalType": "uint256",
          "name": "promotionEndsIn",
          "type": "uint256"
        },
        {
          "internalType": "uint256",
          "name": "offerEndsIn",
          "type": "uint256"
        }
      ],
      "name": "updateCampaign",
      "outputs": [],
      "stateMutability": "nonpayable",
      "type": "function"
    },
    {
      "inputs": [
        {
          "internalType": "uint256",
          "name": "newFees",
          "type": "uint256"
        }
      ],
      "name": "updatePlatformFees",
      "outputs": [],
      "stateMutability": "nonpayable",
      "type": "function"
    }
  ],
  "bytecode": "0x60c0604052735fbdb2315678afecb367f032d93f642f64180aa373ffffffffffffffffffffffffffffffffffffffff1660809073ffffffffffffffffffffffffffffffffffffffff16815250600660a09081525034801561005f57600080fd5b5033600073ffffffffffffffffffffffffffffffffffffffff168173ffffffffffffffffffffffffffffffffffffffff16036100d35760006040517f1e4fbdf70000000000000000000000000000000000000000000000000000000081526004016100ca91906101fd565b60405180910390fd5b6100e2816100f860201b60201c565b5060018081905550612710600281905550610218565b60008060009054906101000a900473ffffffffffffffffffffffffffffffffffffffff169050816000806101000a81548173ffffffffffffffffffffffffffffffffffffffff021916908373ffffffffffffffffffffffffffffffffffffffff1602179055508173ffffffffffffffffffffffffffffffffffffffff168173ffffffffffffffffffffffffffffffffffffffff167f8be0079c531659141344cd1fd0a4f28419497f9722a3daafe3b4186f6b6457e060405160405180910390a35050565b600073ffffffffffffffffffffffffffffffffffffffff82169050919050565b60006101e7826101bc565b9050919050565b6101f7816101dc565b82525050565b600060208201905061021260008301846101ee565b92915050565b60805160a051612b0361024b600039600061191f015260008181610fd70152818161170701526118e70152612b036000f3fe608060405234801561001057600080fd5b50600436106101215760003560e01c806378e4f37c116100ad578063b37df59411610071578063b37df594146102d0578063e2842d79146102ee578063e67a94e61461030c578063e8136a5114610328578063f2fde38b1461034457610121565b806378e4f37c1461021657806386cdf604146102345780638da5cb5b14610252578063a1e5084c14610270578063a2bdedf4146102a057610121565b8063320a4639116100f4578063320a463914610184578063378efa37146101b4578063382c2f13146101d257806369f5352b146101ee578063715018a61461020c57610121565b8063110011bc146101265780631aa3a008146101425780632226ff3b1461014c57806331c7338b14610168575b600080fd5b610140600480360381019061013b9190612246565b610360565b005b61014a6107c1565b005b61016660048036038101906101619190612307565b610950565b005b610182600480360381019061017d9190612246565b610d3e565b005b61019e60048036038101906101999190612246565b6111d3565b6040516101ab91906124b4565b60405180910390f35b6101bc6113a9565b6040516101c991906124df565b60405180910390f35b6101ec60048036038101906101e79190612246565b6113b0565b005b6101f66118e5565b6040516102039190612509565b60405180910390f35b610214611909565b005b61021e61191d565b60405161022b91906124df565b60405180910390f35b61023c611941565b60405161024991906125d3565b60405180910390f35b61025a6119db565b6040516102679190612509565b60405180910390f35b61028a600480360381019061028591906125f5565b611a04565b60405161029791906125d3565b60405180910390f35b6102ba60048036038101906102b59190612622565b611add565b6040516102c79190612509565b60405180910390f35b6102d8611b1c565b6040516102e591906124df565b60405180910390f35b6102f6611b22565b60405161030391906126fe565b60405180910390f35b61032660048036038101906103219190612720565b611bb0565b005b610342600480360381019061033d9190612622565b611ecc565b005b61035e600480360381019061035991906125f5565b611f1f565b005b610368611fa5565b80600060076000837bffffffffffffffffffffffffffffffffffffffffffffffffffffffff19167bffffffffffffffffffffffffffffffffffffffffffffffffffffffff19168152602001908152602001600020604051806101000160405290816000820160009054906101000a900460e01b7bffffffffffffffffffffffffffffffffffffffffffffffffffffffff19167bffffffffffffffffffffffffffffffffffffffffffffffffffffffff19168152602001600182015481526020016002820160009054906101000a900473ffffffffffffffffffffffffffffffffffffffff1673ffffffffffffffffffffffffffffffffffffffff1673ffffffffffffffffffffffffffffffffffffffff1681526020016003820160009054906101000a900473ffffffffffffffffffffffffffffffffffffffff1673ffffffffffffffffffffffffffffffffffffffff1673ffffffffffffffffffffffffffffffffffffffff1681526020016004820154815260200160058201548152602001600682015481526020016007820160009054906101000a900460ff1660048111156105165761051561239b565b5b60048111156105285761052761239b565b5b8152505090506004808111156105415761054061239b565b5b8160e0015160048111156105585761055761239b565b5b0361058f576040517f17e14a6c00000000000000000000000000000000000000000000000000000000815260040160405180910390fd5b61059761202c565b600060076000857bffffffffffffffffffffffffffffffffffffffffffffffffffffffff19167bffffffffffffffffffffffffffffffffffffffffffffffffffffffff19168152602001908152602001600020905060006004811115610600576105ff61239b565b5b8160070160009054906101000a900460ff1660048111156106245761062361239b565b5b1461067a5760008160070160009054906101000a900460ff166040517f1e8a8fcc000000000000000000000000000000000000000000000000000000008152600401610671929190612796565b60405180910390fd5b6000429050816004015481111561072d5760048260070160006101000a81548160ff021916908360048111156106b3576106b261239b565b5b02179055507f0200ae58a9904ca9afdc6ca0ce2728d7163c92dab1a963b710a600a7f77d0519856040516106e791906127ce565b60405180910390a17f3755062e01a86560ceb9317dc32849c608ca19d868ff8ea756a1e78b80a355a58560405161071e91906127ce565b60405180910390a150506107b4565b60018260070160006101000a81548160ff021916908360048111156107555761075461239b565b5b0217905550847bffffffffffffffffffffffffffffffffffffffffffffffffffffffff19167fe5cf44d72a8814a2030733c88ec446bde46fb067f7719357623edbcd901a28f4336040516107a99190612509565b60405180910390a250505b6107bc612072565b505050565b600460003373ffffffffffffffffffffffffffffffffffffffff1673ffffffffffffffffffffffffffffffffffffffff16815260200190815260200160002060009054906101000a900460ff161561085057336040517f9e676ee70000000000000000000000000000000000000000000000000000000081526004016108479190612509565b60405180910390fd5b6001600460003373ffffffffffffffffffffffffffffffffffffffff1673ffffffffffffffffffffffffffffffffffffffff16815260200190815260200160002060006101000a81548160ff0219169083151502179055506003339080600181540180825580915050600190039060005260206000200160009091909190916101000a81548173ffffffffffffffffffffffffffffffffffffffff021916908373ffffffffffffffffffffffffffffffffffffffff1602179055503373ffffffffffffffffffffffffffffffffffffffff167f0b0376a109cbb578b709f85f6a7befcdac3ac1ab251c99ede87f30c9572ac4d360405160405180910390a2565b600460003373ffffffffffffffffffffffffffffffffffffffff1673ffffffffffffffffffffffffffffffffffffffff16815260200190815260200160002060009054906101000a900460ff166109de57336040517fae2730ca0000000000000000000000000000000000000000000000000000000081526004016109d59190612509565b60405180910390fd5b600033426040516020016109f39291906128a9565b60405160208183030381529060405280519060200120905060004290506000604051806101000160405280847bffffffffffffffffffffffffffffffffffffffffffffffffffffffff191681526020018381526020013373ffffffffffffffffffffffffffffffffffffffff1681526020018873ffffffffffffffffffffffffffffffffffffffff16815260200185815260200186815260200187815260200160006004811115610aa757610aa661239b565b5b81525090508060076000857bffffffffffffffffffffffffffffffffffffffffffffffffffffffff19167bffffffffffffffffffffffffffffffffffffffffffffffffffffffff1916815260200190815260200160002060008201518160000160006101000a81548163ffffffff021916908360e01c02179055506020820151816001015560408201518160020160006101000a81548173ffffffffffffffffffffffffffffffffffffffff021916908373ffffffffffffffffffffffffffffffffffffffff16021790555060608201518160030160006101000a81548173ffffffffffffffffffffffffffffffffffffffff021916908373ffffffffffffffffffffffffffffffffffffffff1602179055506080820151816004015560a0820151816005015560c0820151816006015560e08201518160070160006101000a81548160ff02191690836004811115610c0357610c0261239b565b5b021790555090505060058390806001815401808255809150506001900390600052602060002090600891828204019190066004029091909190916101000a81548163ffffffff021916908360e01c0217905550600660003373ffffffffffffffffffffffffffffffffffffffff1673ffffffffffffffffffffffffffffffffffffffff1681526020019081526020016000208390806001815401808255809150506001900390600052602060002090600891828204019190066004029091909190916101000a81548163ffffffff021916908360e01c0217905550827bffffffffffffffffffffffffffffffffffffffffffffffffffffffff19167fe41d37ea58ed0203f8476bf3621dbbab9e570a47e5d70e070d77fff130bad3d733604051610d2d9190612509565b60405180910390a250505050505050565b610d46611fa5565b610d4e61202c565b80600060076000837bffffffffffffffffffffffffffffffffffffffffffffffffffffffff19167bffffffffffffffffffffffffffffffffffffffffffffffffffffffff19168152602001908152602001600020604051806101000160405290816000820160009054906101000a900460e01b7bffffffffffffffffffffffffffffffffffffffffffffffffffffffff19167bffffffffffffffffffffffffffffffffffffffffffffffffffffffff19168152602001600182015481526020016002820160009054906101000a900473ffffffffffffffffffffffffffffffffffffffff1673ffffffffffffffffffffffffffffffffffffffff1673ffffffffffffffffffffffffffffffffffffffff1681526020016003820160009054906101000a900473ffffffffffffffffffffffffffffffffffffffff1673ffffffffffffffffffffffffffffffffffffffff1673ffffffffffffffffffffffffffffffffffffffff1681526020016004820154815260200160058201548152602001600682015481526020016007820160009054906101000a900460ff166004811115610efc57610efb61239b565b5b6004811115610f0e57610f0d61239b565b5b815250509050600480811115610f2757610f2661239b565b5b8160e001516004811115610f3e57610f3d61239b565b5b03610f75576040517f17e14a6c00000000000000000000000000000000000000000000000000000000815260040160405180910390fd5b600060076000857bffffffffffffffffffffffffffffffffffffffffffffffffffffffff19167bffffffffffffffffffffffffffffffffffffffffffffffffffffffff19168152602001908152602001600020905060008160060154905060007f00000000000000000000000000000000000000000000000000000000000000009050818173ffffffffffffffffffffffffffffffffffffffff166370a0823161101d6119db565b6040518263ffffffff1660e01b81526004016110399190612509565b602060405180830381865afa158015611056573d6000803e3d6000fd5b505050506040513d601f19601f8201168201806040525081019061107a91906128f5565b101561113f57818173ffffffffffffffffffffffffffffffffffffffff166370a082316110a56119db565b6040518263ffffffff1660e01b81526004016110c19190612509565b602060405180830381865afa1580156110de573d6000803e3d6000fd5b505050506040513d601f19601f8201168201806040525081019061110291906128f5565b6040517faa1f42bd000000000000000000000000000000000000000000000000000000008152600401611136929190612922565b60405180910390fd5b60048360070160006101000a81548160ff021916908360048111156111675761116661239b565b5b0217905550857bffffffffffffffffffffffffffffffffffffffffffffffffffffffff19167f3143324469716ea7cb6b9bc9bbe9af85e40758d7148f12663616614052a9f7b9336040516111bb9190612509565b60405180910390a250505050506111d0612072565b50565b6111db612147565b600060076000847bffffffffffffffffffffffffffffffffffffffffffffffffffffffff19167bffffffffffffffffffffffffffffffffffffffffffffffffffffffff19168152602001908152602001600020604051806101000160405290816000820160009054906101000a900460e01b7bffffffffffffffffffffffffffffffffffffffffffffffffffffffff19167bffffffffffffffffffffffffffffffffffffffffffffffffffffffff19168152602001600182015481526020016002820160009054906101000a900473ffffffffffffffffffffffffffffffffffffffff1673ffffffffffffffffffffffffffffffffffffffff1673ffffffffffffffffffffffffffffffffffffffff1681526020016003820160009054906101000a900473ffffffffffffffffffffffffffffffffffffffff1673ffffffffffffffffffffffffffffffffffffffff1673ffffffffffffffffffffffffffffffffffffffff1681526020016004820154815260200160058201548152602001600682015481526020016007820160009054906101000a900460ff1660048111156113885761138761239b565b5b600481111561139a5761139961239b565b5b81525050905080915050919050565b620186a081565b6113b8611fa5565b80600060076000837bffffffffffffffffffffffffffffffffffffffffffffffffffffffff19167bffffffffffffffffffffffffffffffffffffffffffffffffffffffff19168152602001908152602001600020604051806101000160405290816000820160009054906101000a900460e01b7bffffffffffffffffffffffffffffffffffffffffffffffffffffffff19167bffffffffffffffffffffffffffffffffffffffffffffffffffffffff19168152602001600182015481526020016002820160009054906101000a900473ffffffffffffffffffffffffffffffffffffffff1673ffffffffffffffffffffffffffffffffffffffff1673ffffffffffffffffffffffffffffffffffffffff1681526020016003820160009054906101000a900473ffffffffffffffffffffffffffffffffffffffff1673ffffffffffffffffffffffffffffffffffffffff1673ffffffffffffffffffffffffffffffffffffffff1681526020016004820154815260200160058201548152602001600682015481526020016007820160009054906101000a900460ff1660048111156115665761156561239b565b5b60048111156115785761157761239b565b5b8152505090506004808111156115915761159061239b565b5b8160e0015160048111156115a8576115a761239b565b5b036115df576040517f17e14a6c00000000000000000000000000000000000000000000000000000000815260040160405180910390fd5b6115e761202c565b600060076000857bffffffffffffffffffffffffffffffffffffffffffffffffffffffff19167bffffffffffffffffffffffffffffffffffffffffffffffffffffffff191681526020019081526020016000209050600160048111156116505761164f61239b565b5b8160070160009054906101000a900460ff1660048111156116745761167361239b565b5b146116ca5760018160070160009054906101000a900460ff166040517f1e8a8fcc0000000000000000000000000000000000000000000000000000000081526004016116c1929190612796565b60405180910390fd5b6000816006015490506000620186a0600254836116e7919061297a565b6116f191906129eb565b9050600081836117019190612a1c565b905060007f00000000000000000000000000000000000000000000000000000000000000009050818173ffffffffffffffffffffffffffffffffffffffff166370a0823161174d6119db565b6040518263ffffffff1660e01b81526004016117699190612509565b602060405180830381865afa158015611786573d6000803e3d6000fd5b505050506040513d601f19601f820116820180604052508101906117aa91906128f5565b101561186f57818173ffffffffffffffffffffffffffffffffffffffff166370a082316117d56119db565b6040518263ffffffff1660e01b81526004016117f19190612509565b602060405180830381865afa15801561180e573d6000803e3d6000fd5b505050506040513d601f19601f8201168201806040525081019061183291906128f5565b6040517faa1f42bd000000000000000000000000000000000000000000000000000000008152600401611866929190612922565b60405180910390fd5b60028560070160006101000a81548160ff021916908360048111156118975761189661239b565b5b02179055507fd7d080f34f62be028407df1c24ad247902199ace5d02d8faa13f5636809d0c7c886040516118cb91906127ce565b60405180910390a150505050506118e0612072565b505050565b7f000000000000000000000000000000000000000000000000000000000000000081565b611911611fa5565b61191b600061207b565b565b7f000000000000000000000000000000000000000000000000000000000000000081565b606060058054806020026020016040519081016040528092919081815260200182805480156119d157602002820191906000526020600020906000905b82829054906101000a900460e01b7bffffffffffffffffffffffffffffffffffffffffffffffffffffffff19168152602001906004019060208260030104928301926001038202915080841161197e5790505b5050505050905090565b60008060009054906101000a900473ffffffffffffffffffffffffffffffffffffffff16905090565b6060600660008373ffffffffffffffffffffffffffffffffffffffff1673ffffffffffffffffffffffffffffffffffffffff168152602001908152602001600020805480602002602001604051908101604052809291908181526020018280548015611ad157602002820191906000526020600020906000905b82829054906101000a900460e01b7bffffffffffffffffffffffffffffffffffffffffffffffffffffffff191681526020019060040190602082600301049283019260010382029150808411611a7e5790505b50505050509050919050565b60038181548110611aed57600080fd5b906000526020600020016000915054906101000a900473ffffffffffffffffffffffffffffffffffffffff1681565b60025481565b60606003805480602002602001604051908101604052809291908181526020018280548015611ba657602002820191906000526020600020905b8160009054906101000a900473ffffffffffffffffffffffffffffffffffffffff1673ffffffffffffffffffffffffffffffffffffffff1681526020019060010190808311611b5c575b5050505050905090565b600460003373ffffffffffffffffffffffffffffffffffffffff1673ffffffffffffffffffffffffffffffffffffffff16815260200190815260200160002060009054906101000a900460ff16611c3e57336040517fae2730ca000000000000000000000000000000000000000000000000000000008152600401611c359190612509565b60405180910390fd5b600073ffffffffffffffffffffffffffffffffffffffff168373ffffffffffffffffffffffffffffffffffffffff1603611cad576040517f08c379a0000000000000000000000000000000000000000000000000000000008152600401611ca490612aad565b60405180910390fd5b600060076000867bffffffffffffffffffffffffffffffffffffffffffffffffffffffff19167bffffffffffffffffffffffffffffffffffffffffffffffffffffffff19168152602001908152602001600020905060006004811115611d1657611d1561239b565b5b8160070160009054906101000a900460ff166004811115611d3a57611d3961239b565b5b14611d905760008160070160009054906101000a900460ff166040517f1e8a8fcc000000000000000000000000000000000000000000000000000000008152600401611d87929190612796565b60405180910390fd5b3373ffffffffffffffffffffffffffffffffffffffff168160020160009054906101000a900473ffffffffffffffffffffffffffffffffffffffff1673ffffffffffffffffffffffffffffffffffffffff1614611e19576040517f82b4290000000000000000000000000000000000000000000000000000000000815260040160405180910390fd5b838160030160006101000a81548173ffffffffffffffffffffffffffffffffffffffff021916908373ffffffffffffffffffffffffffffffffffffffff160217905550828160050181905550818160040181905550847bffffffffffffffffffffffffffffffffffffffffffffffffffffffff19167f3143324469716ea7cb6b9bc9bbe9af85e40758d7148f12663616614052a9f7b933604051611ebd9190612509565b60405180910390a25050505050565b611ed4611fa5565b60006002549050816002819055507fd8e832f816c1cbad9f319fc8017ca9d81476c84945de3610a3cf813538f737518183604051611f13929190612922565b60405180910390a15050565b611f27611fa5565b600073ffffffffffffffffffffffffffffffffffffffff168173ffffffffffffffffffffffffffffffffffffffff1603611f995760006040517f1e4fbdf7000000000000000000000000000000000000000000000000000000008152600401611f909190612509565b60405180910390fd5b611fa28161207b565b50565b611fad61213f565b73ffffffffffffffffffffffffffffffffffffffff16611fcb6119db565b73ffffffffffffffffffffffffffffffffffffffff161461202a57611fee61213f565b6040517f118cdaa70000000000000000000000000000000000000000000000000000000081526004016120219190612509565b60405180910390fd5b565b600260015403612068576040517f3ee5aeb500000000000000000000000000000000000000000000000000000000815260040160405180910390fd5b6002600181905550565b60018081905550565b60008060009054906101000a900473ffffffffffffffffffffffffffffffffffffffff169050816000806101000a81548173ffffffffffffffffffffffffffffffffffffffff021916908373ffffffffffffffffffffffffffffffffffffffff1602179055508173ffffffffffffffffffffffffffffffffffffffff168173ffffffffffffffffffffffffffffffffffffffff167f8be0079c531659141344cd1fd0a4f28419497f9722a3daafe3b4186f6b6457e060405160405180910390a35050565b600033905090565b60405180610100016040528060007bffffffffffffffffffffffffffffffffffffffffffffffffffffffff1916815260200160008152602001600073ffffffffffffffffffffffffffffffffffffffff168152602001600073ffffffffffffffffffffffffffffffffffffffff168152602001600081526020016000815260200160008152602001600060048111156121e3576121e261239b565b5b81525090565b600080fd5b60007fffffffff0000000000000000000000000000000000000000000000000000000082169050919050565b612223816121ee565b811461222e57600080fd5b50565b6000813590506122408161221a565b92915050565b60006020828403121561225c5761225b6121e9565b5b600061226a84828501612231565b91505092915050565b600073ffffffffffffffffffffffffffffffffffffffff82169050919050565b600061229e82612273565b9050919050565b6122ae81612293565b81146122b957600080fd5b50565b6000813590506122cb816122a5565b92915050565b6000819050919050565b6122e4816122d1565b81146122ef57600080fd5b50565b600081359050612301816122db565b92915050565b60008060008060808587031215612321576123206121e9565b5b600061232f878288016122bc565b9450506020612340878288016122f2565b9350506040612351878288016122f2565b9250506060612362878288016122f2565b91505092959194509250565b612377816121ee565b82525050565b612386816122d1565b82525050565b61239581612293565b82525050565b7f4e487b7100000000000000000000000000000000000000000000000000000000600052602160045260246000fd5b600581106123db576123da61239b565b5b50565b60008190506123ec826123ca565b919050565b60006123fc826123de565b9050919050565b61240c816123f1565b82525050565b61010082016000820151612429600085018261236e565b50602082015161243c602085018261237d565b50604082015161244f604085018261238c565b506060820151612462606085018261238c565b506080820151612475608085018261237d565b5060a082015161248860a085018261237d565b5060c082015161249b60c085018261237d565b5060e08201516124ae60e0850182612403565b50505050565b6000610100820190506124ca6000830184612412565b92915050565b6124d9816122d1565b82525050565b60006020820190506124f460008301846124d0565b92915050565b61250381612293565b82525050565b600060208201905061251e60008301846124fa565b92915050565b600081519050919050565b600082825260208201905092915050565b6000819050602082019050919050565b600061255c838361236e565b60208301905092915050565b6000602082019050919050565b600061258082612524565b61258a818561252f565b935061259583612540565b8060005b838110156125c65781516125ad8882612550565b97506125b883612568565b925050600181019050612599565b5085935050505092915050565b600060208201905081810360008301526125ed8184612575565b905092915050565b60006020828403121561260b5761260a6121e9565b5b6000612619848285016122bc565b91505092915050565b600060208284031215612638576126376121e9565b5b6000612646848285016122f2565b91505092915050565b600081519050919050565b600082825260208201905092915050565b6000819050602082019050919050565b6000612687838361238c565b60208301905092915050565b6000602082019050919050565b60006126ab8261264f565b6126b5818561265a565b93506126c08361266b565b8060005b838110156126f15781516126d8888261267b565b97506126e383612693565b9250506001810190506126c4565b5085935050505092915050565b6000602082019050818103600083015261271881846126a0565b905092915050565b6000806000806080858703121561273a576127396121e9565b5b600061274887828801612231565b9450506020612759878288016122bc565b935050604061276a878288016122f2565b925050606061277b878288016122f2565b91505092959194509250565b612790816123f1565b82525050565b60006040820190506127ab6000830185612787565b6127b86020830184612787565b9392505050565b6127c8816121ee565b82525050565b60006020820190506127e360008301846127bf565b92915050565b60008160601b9050919050565b6000612801826127e9565b9050919050565b6000612813826127f6565b9050919050565b61282b61282682612293565b612808565b82525050565b600081905092915050565b7f4352454154455f43414d504149474e0000000000000000000000000000000000600082015250565b6000612872600f83612831565b915061287d8261283c565b600f82019050919050565b6000819050919050565b6128a361289e826122d1565b612888565b82525050565b60006128b5828561281a565b6014820191506128c482612865565b91506128d08284612892565b6020820191508190509392505050565b6000815190506128ef816122db565b92915050565b60006020828403121561290b5761290a6121e9565b5b6000612919848285016128e0565b91505092915050565b600060408201905061293760008301856124d0565b61294460208301846124d0565b9392505050565b7f4e487b7100000000000000000000000000000000000000000000000000000000600052601160045260246000fd5b6000612985826122d1565b9150612990836122d1565b925082820261299e816122d1565b915082820484148315176129b5576129b461294b565b5b5092915050565b7f4e487b7100000000000000000000000000000000000000000000000000000000600052601260045260246000fd5b60006129f6826122d1565b9150612a01836122d1565b925082612a1157612a106129bc565b5b828204905092915050565b6000612a27826122d1565b9150612a32836122d1565b9250828203905081811115612a4a57612a4961294b565b5b92915050565b600082825260208201905092915050565b7f496e76616c6964204b4f4c206164647265737300000000000000000000000000600082015250565b6000612a97601383612a50565b9150612aa282612a61565b602082019050919050565b60006020820190508181036000830152612ac681612a8a565b905091905056fea2646970667358221220839ee01f0448ca2f324541de56572659817accf6179bfc56da32d6799a28731964736f6c634300081a0033",
  "linkReferences": {},
  "deployedLinkReferences": {}
}